{
  "contractName": "Project",
  "abi": [
    {
      "constant": true,
      "inputs": [],
      "name": "name",
      "outputs": [
        {
          "name": "",
          "type": "string"
        }
      ],
      "payable": false,
      "stateMutability": "view",
      "type": "function"
    },
    {
      "constant": true,
      "inputs": [],
      "name": "goalAchieved",
      "outputs": [
        {
          "name": "",
          "type": "uint8"
        }
      ],
      "payable": false,
      "stateMutability": "view",
      "type": "function"
    },
    {
      "constant": true,
      "inputs": [],
      "name": "total",
      "outputs": [
        {
          "name": "",
          "type": "uint256"
        }
      ],
      "payable": false,
      "stateMutability": "view",
      "type": "function"
    },
    {
      "constant": true,
      "inputs": [],
      "name": "validatorAddress",
      "outputs": [
        {
          "name": "",
          "type": "address"
        }
      ],
      "payable": false,
      "stateMutability": "view",
      "type": "function"
    },
    {
      "constant": true,
      "inputs": [],
      "name": "goal",
      "outputs": [
        {
          "name": "",
          "type": "uint256"
        }
      ],
      "payable": false,
      "stateMutability": "view",
      "type": "function"
    },
    {
      "constant": false,
      "inputs": [],
      "name": "renounceOwnership",
      "outputs": [],
      "payable": false,
      "stateMutability": "nonpayable",
      "type": "function"
    },
    {
      "constant": true,
      "inputs": [],
      "name": "owner",
      "outputs": [
        {
          "name": "",
          "type": "address"
        }
      ],
      "payable": false,
      "stateMutability": "view",
      "type": "function"
    },
    {
      "constant": true,
      "inputs": [],
      "name": "CONTRACT_PROVIDER_ADDRESS",
      "outputs": [
        {
          "name": "",
          "type": "address"
        }
      ],
      "payable": false,
      "stateMutability": "view",
      "type": "function"
    },
    {
      "constant": true,
      "inputs": [],
      "name": "beneficiaryAddress",
      "outputs": [
        {
          "name": "",
          "type": "address"
        }
      ],
      "payable": false,
      "stateMutability": "view",
      "type": "function"
    },
    {
      "constant": true,
      "inputs": [],
      "name": "validated",
      "outputs": [
        {
          "name": "",
          "type": "uint8"
        }
      ],
      "payable": false,
      "stateMutability": "view",
      "type": "function"
    },
    {
      "constant": false,
      "inputs": [
        {
          "name": "_newOwner",
          "type": "address"
        }
      ],
      "name": "transferOwnership",
      "outputs": [],
      "payable": false,
      "stateMutability": "nonpayable",
      "type": "function"
    },
    {
      "inputs": [
        {
          "name": "_name",
          "type": "string"
        }
      ],
      "payable": false,
      "stateMutability": "nonpayable",
      "type": "constructor"
    },
    {
      "anonymous": false,
      "inputs": [
        {
          "indexed": true,
          "name": "previousOwner",
          "type": "address"
        }
      ],
      "name": "OwnershipRenounced",
      "type": "event"
    },
    {
      "anonymous": false,
      "inputs": [
        {
          "indexed": true,
          "name": "previousOwner",
          "type": "address"
        },
        {
          "indexed": true,
          "name": "newOwner",
          "type": "address"
        }
      ],
      "name": "OwnershipTransferred",
      "type": "event"
    },
    {
      "constant": false,
      "inputs": [],
      "name": "emergencyAlertToggler",
      "outputs": [],
      "payable": false,
      "stateMutability": "nonpayable",
      "type": "function"
    },
    {
      "constant": false,
      "inputs": [
        {
          "name": "_validatorAddress",
          "type": "address"
        },
        {
          "name": "_goal",
          "type": "uint256"
        }
      ],
      "name": "setValidator",
      "outputs": [],
      "payable": false,
      "stateMutability": "nonpayable",
      "type": "function"
    },
    {
      "constant": false,
      "inputs": [
        {
          "name": "_beneficiaryAddress",
          "type": "address"
        }
      ],
      "name": "setBeneficiary",
      "outputs": [],
      "payable": false,
      "stateMutability": "nonpayable",
      "type": "function"
    },
    {
      "constant": false,
      "inputs": [
        {
          "name": "_contractProvider",
          "type": "address"
        }
      ],
      "name": "setContractProvider",
      "outputs": [],
      "payable": false,
      "stateMutability": "nonpayable",
      "type": "function"
    },
    {
      "constant": false,
      "inputs": [
        {
          "name": "_ipfshHash",
          "type": "bytes"
        }
      ],
      "name": "setProjectAdditionalInfo",
      "outputs": [],
      "payable": false,
      "stateMutability": "nonpayable",
      "type": "function"
    },
    {
      "constant": true,
      "inputs": [],
      "name": "getProjectInfo",
      "outputs": [
        {
          "name": "",
          "type": "bytes"
        }
      ],
      "payable": false,
      "stateMutability": "view",
      "type": "function"
    },
    {
      "constant": false,
      "inputs": [
        {
          "name": "_amount",
          "type": "uint256"
        }
      ],
      "name": "registerDonation",
      "outputs": [],
      "payable": false,
      "stateMutability": "nonpayable",
      "type": "function"
    },
    {
      "constant": false,
      "inputs": [
        {
          "name": "_value",
          "type": "uint256"
        }
      ],
      "name": "fund",
      "outputs": [],
      "payable": false,
      "stateMutability": "nonpayable",
      "type": "function"
    },
    {
      "constant": false,
      "inputs": [
        {
          "name": "_value",
          "type": "uint256"
        }
      ],
      "name": "validateOutcome",
      "outputs": [],
      "payable": false,
      "stateMutability": "nonpayable",
      "type": "function"
    },
    {
      "constant": true,
      "inputs": [],
      "name": "getTotal",
      "outputs": [
        {
          "name": "",
          "type": "uint256"
        }
      ],
      "payable": false,
      "stateMutability": "view",
      "type": "function"
    },
    {
      "constant": true,
      "inputs": [],
      "name": "getGoal",
      "outputs": [
        {
          "name": "",
          "type": "uint256"
        }
      ],
      "payable": false,
      "stateMutability": "view",
      "type": "function"
    },
    {
      "constant": true,
      "inputs": [],
      "name": "getProject",
      "outputs": [
        {
          "name": "_pname",
          "type": "string"
        },
        {
          "name": "_validator",
          "type": "address"
        },
        {
          "name": "_beneficiary",
          "type": "address"
        },
        {
          "name": "_contractProvider",
          "type": "address"
        },
        {
          "name": "_ipfsHash",
          "type": "bytes"
        },
        {
          "name": "_total",
          "type": "uint256"
        },
        {
          "name": "_goal",
          "type": "uint256"
        },
        {
          "name": "_goalAchieved",
          "type": "uint8"
        },
        {
          "name": "_validated",
          "type": "uint8"
        },
        {
          "name": "_index",
          "type": "uint256"
        }
      ],
      "payable": false,
      "stateMutability": "view",
      "type": "function"
    },
    {
      "constant": true,
      "inputs": [],
      "name": "getTotalDonors",
      "outputs": [
        {
          "name": "",
          "type": "uint256"
        }
      ],
      "payable": false,
      "stateMutability": "view",
      "type": "function"
    },
    {
      "constant": false,
      "inputs": [],
      "name": "isGoalAchieved",
      "outputs": [
        {
          "name": "",
          "type": "uint8"
        }
      ],
      "payable": false,
      "stateMutability": "nonpayable",
      "type": "function"
    },
    {
      "constant": true,
      "inputs": [],
      "name": "isValidated",
      "outputs": [
        {
          "name": "",
          "type": "uint8"
        }
      ],
      "payable": false,
      "stateMutability": "view",
      "type": "function"
    }
  ],
  "bytecode": "0x60806040526040805190810160405280601381526020017f4b4552414c4120464c4f4f442052454c494546000000000000000000000000008152506001908051906020019062000051929190620002b3565b50732d57e76f4c2e3bbe8d8c45de056d16d7964bd180600260006101000a81548173ffffffffffffffffffffffffffffffffffffffff021916908373ffffffffffffffffffffffffffffffffffffffff160217905550732d57e76f4c2e3bbe8d8c45de056d16d7964bd180600360006101000a81548173ffffffffffffffffffffffffffffffffffffffff021916908373ffffffffffffffffffffffffffffffffffffffff160217905550732d57e76f4c2e3bbe8d8c45de056d16d7964bd180600460006101000a81548173ffffffffffffffffffffffffffffffffffffffff021916908373ffffffffffffffffffffffffffffffffffffffff160217905550606060405190810160405280602e81526020017f516d6268743855714a387673356b6f50696f7062397674425056774c796a707381526020017f464d37425a46565259583631443600000000000000000000000000000000000081525060059080519060200190620001c59291906200033a565b506000600660006101000a81548160ff0219169083151502179055506307270e006008556000600a60006101000a81548160ff021916908360ff1602179055506000600a60016101000a81548160ff021916908360ff1602179055503480156200022e57600080fd5b50604051620019bd380380620019bd83398101806040528101908080518201929190505050336000806101000a81548173ffffffffffffffffffffffffffffffffffffffff021916908373ffffffffffffffffffffffffffffffffffffffff1602179055508060019080519060200190620002ab929190620002b3565b5050620003e9565b828054600181600116156101000203166002900490600052602060002090601f016020900481019282601f10620002f657805160ff191683800117855562000327565b8280016001018555821562000327579182015b828111156200032657825182559160200191906001019062000309565b5b509050620003369190620003c1565b5090565b828054600181600116156101000203166002900490600052602060002090601f016020900481019282601f106200037d57805160ff1916838001178555620003ae565b82800160010185558215620003ae579182015b82811115620003ad57825182559160200191906001019062000390565b5b509050620003bd9190620003c1565b5090565b620003e691905b80821115620003e2576000816000905550600101620003c8565b5090565b90565b6115c480620003f96000396000f300608060405260043610610154576000357c0100000000000000000000000000000000000000000000000000000000900463ffffffff16806306fdde03146101595780630f7a4590146101e95780631c31f7101461021a5780632ddbd13a1461025d578063339b7bc4146102885780633fe4676e1461029f57806340193883146102f6578063414eb8141461032157806367c897fe146103525780636e57b700146103e2578063715018a6146105a657806372f4fdbf146105bd578063775a25e3146105ea5780638da5cb5b146106155780638f6d5ed01461066c5780639f577c15146106d5578063a49bcda014610718578063abb9406b14610749578063b2de1a3f14610796578063b97a7d24146107ed578063ca1d209d14610818578063ce71cf1c14610845578063d9c4870e14610872578063e615a712146108c9578063efb37a39146108f4578063f2fde38b14610925575b600080fd5b34801561016557600080fd5b5061016e610968565b6040518080602001828103825283818151815260200191508051906020019080838360005b838110156101ae578082015181840152602081019050610193565b50505050905090810190601f1680156101db5780820380516001836020036101000a031916815260200191505b509250505060405180910390f35b3480156101f557600080fd5b506101fe610a06565b604051808260ff1660ff16815260200191505060405180910390f35b34801561022657600080fd5b5061025b600480360381019080803573ffffffffffffffffffffffffffffffffffffffff169060200190929190505050610a19565b005b34801561026957600080fd5b50610272610ab8565b6040518082815260200191505060405180910390f35b34801561029457600080fd5b5061029d610abe565b005b3480156102ab57600080fd5b506102b4610b45565b604051808273ffffffffffffffffffffffffffffffffffffffff1673ffffffffffffffffffffffffffffffffffffffff16815260200191505060405180910390f35b34801561030257600080fd5b5061030b610b6b565b6040518082815260200191505060405180910390f35b34801561032d57600080fd5b50610336610b71565b604051808260ff1660ff16815260200191505060405180910390f35b34801561035e57600080fd5b50610367610b88565b6040518080602001828103825283818151815260200191508051906020019080838360005b838110156103a757808201518184015260208101905061038c565b50505050905090810190601f1680156103d45780820380516001836020036101000a031916815260200191505b509250505060405180910390f35b3480156103ee57600080fd5b506103f7610c2a565b60405180806020018b73ffffffffffffffffffffffffffffffffffffffff1673ffffffffffffffffffffffffffffffffffffffff1681526020018a73ffffffffffffffffffffffffffffffffffffffff1673ffffffffffffffffffffffffffffffffffffffff1681526020018973ffffffffffffffffffffffffffffffffffffffff1673ffffffffffffffffffffffffffffffffffffffff168152602001806020018881526020018781526020018660ff1660ff1681526020018560ff1660ff16815260200184815260200183810383528d818151815260200191508051906020019080838360005b838110156104fb5780820151818401526020810190506104e0565b50505050905090810190601f1680156105285780820380516001836020036101000a031916815260200191505b50838103825289818151815260200191508051906020019080838360005b83811015610561578082015181840152602081019050610546565b50505050905090810190601f16801561058e5780820380516001836020036101000a031916815260200191505b509c5050505050505050505050505060405180910390f35b3480156105b257600080fd5b506105bb610e29565b005b3480156105c957600080fd5b506105e860048036038101908080359060200190929190505050610f2b565b005b3480156105f657600080fd5b506105ff610f71565b6040518082815260200191505060405180910390f35b34801561062157600080fd5b5061062a610f7b565b604051808273ffffffffffffffffffffffffffffffffffffffff1673ffffffffffffffffffffffffffffffffffffffff16815260200191505060405180910390f35b34801561067857600080fd5b506106d3600480360381019080803590602001908201803590602001908080601f0160208091040260200160405190810160405280939291908181526020018383808284378201915050505050509192919290505050610fa0565b005b3480156106e157600080fd5b50610716600480360381019080803573ffffffffffffffffffffffffffffffffffffffff169060200190929190505050611015565b005b34801561072457600080fd5b5061072d6110b4565b604051808260ff1660ff16815260200191505060405180910390f35b34801561075557600080fd5b50610794600480360381019080803573ffffffffffffffffffffffffffffffffffffffff1690602001909291908035906020019092919050505061110c565b005b3480156107a257600080fd5b506107ab6111b3565b604051808273ffffffffffffffffffffffffffffffffffffffff1673ffffffffffffffffffffffffffffffffffffffff16815260200191505060405180910390f35b3480156107f957600080fd5b506108026111d9565b6040518082815260200191505060405180910390f35b34801561082457600080fd5b50610843600480360381019080803590602001909291905050506111e3565b005b34801561085157600080fd5b5061087060048036038101908080359060200190929190505050611273565b005b34801561087e57600080fd5b5061088761131a565b604051808273ffffffffffffffffffffffffffffffffffffffff1673ffffffffffffffffffffffffffffffffffffffff16815260200191505060405180910390f35b3480156108d557600080fd5b506108de611340565b6040518082815260200191505060405180910390f35b34801561090057600080fd5b5061090961134a565b604051808260ff1660ff16815260200191505060405180910390f35b34801561093157600080fd5b50610966600480360381019080803573ffffffffffffffffffffffffffffffffffffffff16906020019092919050505061135d565b005b60018054600181600116156101000203166002900480601f0160208091040260200160405190810160405280929190818152602001828054600181600116156101000203166002900480156109fe5780601f106109d3576101008083540402835291602001916109fe565b820191906000526020600020905b8154815290600101906020018083116109e157829003601f168201915b505050505081565b600a60019054906101000a900460ff1681565b6000809054906101000a900473ffffffffffffffffffffffffffffffffffffffff1673ffffffffffffffffffffffffffffffffffffffff163373ffffffffffffffffffffffffffffffffffffffff16141515610a7457600080fd5b80600360006101000a81548173ffffffffffffffffffffffffffffffffffffffff021916908373ffffffffffffffffffffffffffffffffffffffff16021790555050565b60075481565b6000809054906101000a900473ffffffffffffffffffffffffffffffffffffffff1673ffffffffffffffffffffffffffffffffffffffff163373ffffffffffffffffffffffffffffffffffffffff16141515610b1957600080fd5b600660009054906101000a900460ff1615600660006101000a81548160ff021916908315150217905550565b600260009054906101000a900473ffffffffffffffffffffffffffffffffffffffff1681565b60085481565b6000600a60009054906101000a900460ff16905090565b606060058054600181600116156101000203166002900480601f016020809104026020016040519081016040528092919081815260200182805460018160011615610100020316600290048015610c205780601f10610bf557610100808354040283529160200191610c20565b820191906000526020600020905b815481529060010190602001808311610c0357829003601f168201915b5050505050905090565b60606000806000606060008060008060006001600260009054906101000a900473ffffffffffffffffffffffffffffffffffffffff16600360009054906101000a900473ffffffffffffffffffffffffffffffffffffffff16600460009054906101000a900473ffffffffffffffffffffffffffffffffffffffff166005600754600854600a60019054906101000a900460ff16600a60009054906101000a900460ff16600954898054600181600116156101000203166002900480601f016020809104026020016040519081016040528092919081815260200182805460018160011615610100020316600290048015610d665780601f10610d3b57610100808354040283529160200191610d66565b820191906000526020600020905b815481529060010190602001808311610d4957829003601f168201915b50505050509950858054600181600116156101000203166002900480601f016020809104026020016040519081016040528092919081815260200182805460018160011615610100020316600290048015610e025780601f10610dd757610100808354040283529160200191610e02565b820191906000526020600020905b815481529060010190602001808311610de557829003601f168201915b50505050509550995099509950995099509950995099509950995090919293949596979899565b6000809054906101000a900473ffffffffffffffffffffffffffffffffffffffff1673ffffffffffffffffffffffffffffffffffffffff163373ffffffffffffffffffffffffffffffffffffffff16141515610e8457600080fd5b6000809054906101000a900473ffffffffffffffffffffffffffffffffffffffff1673ffffffffffffffffffffffffffffffffffffffff167ff8df31144d9c2f0f6b59d69b8b98abd5459d07f2742c4df920b25aae33c6482060405160405180910390a260008060006101000a81548173ffffffffffffffffffffffffffffffffffffffff021916908373ffffffffffffffffffffffffffffffffffffffff160217905550565b600660009054906101000a900460ff161515610f6e57610f56816007546113c490919063ffffffff16565b60078190555060016009600082825401925050819055505b50565b6000600754905090565b6000809054906101000a900473ffffffffffffffffffffffffffffffffffffffff1681565b6000809054906101000a900473ffffffffffffffffffffffffffffffffffffffff1673ffffffffffffffffffffffffffffffffffffffff163373ffffffffffffffffffffffffffffffffffffffff16141515610ffb57600080fd5b80600590805190602001906110119291906114f3565b5050565b6000809054906101000a900473ffffffffffffffffffffffffffffffffffffffff1673ffffffffffffffffffffffffffffffffffffffff163373ffffffffffffffffffffffffffffffffffffffff1614151561107057600080fd5b80600460006101000a81548173ffffffffffffffffffffffffffffffffffffffff021916908373ffffffffffffffffffffffffffffffffffffffff16021790555050565b60006007546008541115156110f6576001600a60016101000a81548160ff021916908360ff160217905550600a60019054906101000a900460ff169050611109565b600a60019054906101000a900460ff1690505b90565b6000809054906101000a900473ffffffffffffffffffffffffffffffffffffffff1673ffffffffffffffffffffffffffffffffffffffff163373ffffffffffffffffffffffffffffffffffffffff1614151561116757600080fd5b81600260006101000a81548173ffffffffffffffffffffffffffffffffffffffff021916908373ffffffffffffffffffffffffffffffffffffffff160217905550806008819055505050565b600460009054906101000a900473ffffffffffffffffffffffffffffffffffffffff1681565b6000600854905090565b6000809054906101000a900473ffffffffffffffffffffffffffffffffffffffff1673ffffffffffffffffffffffffffffffffffffffff163373ffffffffffffffffffffffffffffffffffffffff1614151561123e57600080fd5b600660009054906101000a900460ff16151561127057611269816007546113c490919063ffffffff16565b6007819055505b50565b600260009054906101000a900473ffffffffffffffffffffffffffffffffffffffff1673ffffffffffffffffffffffffffffffffffffffff163373ffffffffffffffffffffffffffffffffffffffff161415156112cf57600080fd5b60075481111515156112e057600080fd5b6112f5816007546113e090919063ffffffff16565b6007819055506001600a60006101000a81548160ff021916908360ff16021790555050565b600360009054906101000a900473ffffffffffffffffffffffffffffffffffffffff1681565b6000600954905090565b600a60009054906101000a900460ff1681565b6000809054906101000a900473ffffffffffffffffffffffffffffffffffffffff1673ffffffffffffffffffffffffffffffffffffffff163373ffffffffffffffffffffffffffffffffffffffff161415156113b857600080fd5b6113c1816113f9565b50565b600081830190508281101515156113d757fe5b80905092915050565b60008282111515156113ee57fe5b818303905092915050565b600073ffffffffffffffffffffffffffffffffffffffff168173ffffffffffffffffffffffffffffffffffffffff161415151561143557600080fd5b8073ffffffffffffffffffffffffffffffffffffffff166000809054906101000a900473ffffffffffffffffffffffffffffffffffffffff1673ffffffffffffffffffffffffffffffffffffffff167f8be0079c531659141344cd1fd0a4f28419497f9722a3daafe3b4186f6b6457e060405160405180910390a3806000806101000a81548173ffffffffffffffffffffffffffffffffffffffff021916908373ffffffffffffffffffffffffffffffffffffffff16021790555050565b828054600181600116156101000203166002900490600052602060002090601f016020900481019282601f1061153457805160ff1916838001178555611562565b82800160010185558215611562579182015b82811115611561578251825591602001919060010190611546565b5b50905061156f9190611573565b5090565b61159591905b80821115611591576000816000905550600101611579565b5090565b905600a165627a7a723058208972d8cb96b86ba938c7fbad0497c3b8447b61ed30785b684c5f4f9c6ef5d15a0029",
  "source": "pragma solidity ^0.4.24;\n\nimport 'openzeppelin-solidity/contracts/ownership/Ownable.sol';\nimport 'openzeppelin-solidity/contracts/math/SafeMath.sol';\n\n/** @title Project. */\ncontract Project is Ownable {\n    using SafeMath for uint256; //safeMath library usage for total addition\n\n    string public name='KERALA FLOOD RELIEF'; //Name of the project\n    address public validatorAddress=0x2d57e76f4C2E3bBe8D8C45de056d16d7964bD180; //Project validator, who confirms and authorizes charity goal\n    address public beneficiaryAddress=0x2d57e76f4C2E3bBe8D8C45de056d16d7964bD180; //Project Beneficiary(charity), who sets goals and receives donations\n    address public CONTRACT_PROVIDER_ADDRESS=0x2d57e76f4C2E3bBe8D8C45de056d16d7964bD180; //Contract provider address\n    bytes ipfsHashProject='Qmbht8UqJ8vs5koPiopb9vtBPVwLyjpsFM7BZFVRYX61D6'; // IPFS Hash - Other projects information(E.g., Project Detail, validator organisation detail, charity detail) stored as json in IPFS\n    bool private stopped = false; //Circuit breaker in case of emergency\n\n    /* Total amount of all of the donations */\n    uint public total;\n\n    /*goal set by the validator*/\n    uint public goal=120000000;\n\n    /*Index of the donation count*/\n    uint index;\n\n    /*flag to check validation happened or not*/\n    uint8 public validated = 0;\n\n    /*flag to check goal achieved or not*/\n    uint8 public goalAchieved = 0;\n    /* This generates a public event on the blockchain that will notify clients */\n//    event OutcomeEvent(string id, uint value);\n  //  event DonationEvent(uint value);\n\n    constructor(string _name) public {\n        name = _name;\n    }\n\n\n    /**  @dev Circuit Breaker emergency Alert\n    */\n    function emergencyAlertToggler() public onlyOwner {\n        stopped = !stopped;\n    }\n\n    modifier stopInEmergency { if (!stopped) _; }\n    modifier onlyInEmergency { if (stopped) _; }\n\n    /** @dev set Project Validator address.\n      * @param _validatorAddress Address of the validator\n      * @param _goal goal set be the validator\n      */\n    function setValidator(address _validatorAddress, uint _goal) public onlyOwner {\n        validatorAddress = _validatorAddress;\n        goal = _goal;\n    }\n\n    /** @dev set Project Beneficiary address.\n      * @param _beneficiaryAddress  Address of the validator\n      */\n    function setBeneficiary(address _beneficiaryAddress) public onlyOwner {\n        beneficiaryAddress = _beneficiaryAddress;\n    }\n\n    /** @dev set Contract provider address.\n      * @param _contractProvider Address of the contract Provider.\n      */\n    function setContractProvider(address _contractProvider) public onlyOwner {\n        CONTRACT_PROVIDER_ADDRESS = _contractProvider;\n    }\n\n    /** @dev set project additional Information.E.g., Project Detail, validator organisation detail, charity detail) stored as json in IPFS\n      * @param _ipfshHash IPFS hash of the project additional information as a json\n      */\n    function setProjectAdditionalInfo(bytes _ipfshHash) public onlyOwner {\n        ipfsHashProject = _ipfshHash;\n    }\n\n    /** @dev to retrieve the project additional info\n      * @return IPFS hash of the json file containing additional project info\n      */\n    function getProjectInfo() public view returns(bytes) {\n        return ipfsHashProject;\n    }\n\n    /** @dev Register Donation for the project.\n      * @param _amount Amount agreed to be donated\n      */\n    function registerDonation(uint _amount) public stopInEmergency {\n        total = total.add(_amount);\n        index += 1;\n    }\n\n    /** @dev to fund for the project.\n      * @param _value Amount of the value agreed to fund\n      */\n    function fund(uint _value) public onlyOwner stopInEmergency {\n        total = total.add(_value);\n    }\n\n    /** @dev validator to validate the goal set by charity.\n      * @param _value targeted goal\n      */\n    function validateOutcome(uint _value) public {\n        require(msg.sender == validatorAddress);\n        require(_value <= total);\n\n        total = total.sub(_value);\n        validated = 1;\n\n      //  emit OutcomeEvent(_name, _value);\n    }\n\n    /** @dev to retrieve the project total amount collected\n      * @return total - total of the fund collected.\n      */\n    function getTotal() public view returns(uint) {\n        return total;\n    }\n\n    /** @dev to retrieve the project goal\n      * @return goal - targeted goal\n      */\n    function getGoal() public view returns(uint) {\n        return goal;\n    }\n\n    /** @dev to retrieve the project info\n      * @return _pname, _validator, _beneficiary, _contractProvider, _ipfsHash, _total, _goal, __goalAchieved, _validated, _index\n      */\n    function getProject() public view returns(string _pname, address _validator, address _beneficiary, address _contractProvider, bytes _ipfsHash, uint _total, uint _goal, uint8 _goalAchieved, uint8 _validated, uint _index) {\n        return (name, validatorAddress, beneficiaryAddress,\n\t    \t\tCONTRACT_PROVIDER_ADDRESS, ipfsHashProject, total, goal, goalAchieved, validated, index);\n    }\n\n    /** @dev to retrieve the total donation count\n      * @return _index\n      */\n    function getTotalDonors() public view returns(uint) {\n        return index;\n    }\n\n    /** @dev to know Goal is achieved or not\n      * @return bool\n      */\n    function isGoalAchieved() public returns(uint8) {\n        if (goal <= total) {\n            goalAchieved = 1;\n            return goalAchieved;\n        }\n        return goalAchieved;\n    }\n\n    /** @dev to know validation performed or not\n      * @return bool\n      */\n    function isValidated() public view returns(uint8) {\n        return validated;\n    }\n}\n",
  "sourcePath": "/Users/kaliraj/workspace/blockchain/vCharity/contracts/vCharity/Project.sol",
  "compiler": {
    "name": "solc",
    "version": "0.4.24+commit.e67f0147.Emscripten.clang"
  },
  "schemaVersion": "2.0.1",
  "updatedAt": "2018-08-27T20:49:16.112Z"
}